:020000040000FA
:10000000BBEF3CF0C96E120030EF38F04FEC10F04F
:1000100094EC13F0FDD7120014EF3BF0D9CFE5FFBD
:10002000E1CFD9FF00C0E5FF01C0E5FF02C0E5FF59
:1000300003C0E5FF04C0E5FF05C0E5FF06C0E5FF1E
:1000400007C0E5FF08C0E5FF09C0E5FF0AC0E5FFFE
:100050000BC0E5FF0CC0E5FF0DC0E5FF0EC0E5FFDE
:100060000FC0E5FF10C0E5FF11C0E5FF12C0E5FFBE
:1000700013C0E5FF14C0E5FF15C0E5FF16C0E5FF9E
:1000800017C0E5FF18C0E5FF19C0E5FF1AC0E5FF7E
:100090001BC0E5FF1CC0E5FF1DC0E5FF1EC0E5FF5E
:1000A0001FC0E5FF20C0E5FF21C0E5FF22C0E5FF3E
:1000B00023C0E5FF24C0E5FF25C0E5FF020EDBCF2E
:1000C00000F0030EDBCF01F0040EDBCF02F0025094
:1000D000086E0150076E0050066EE56A100EE56E60
:1000E0000850E56E0750E56E0650E56E800EE56E31
:1000F0000F0EE56E230EE56E70EC2EF0080EE12675
:100100002BCF03F02CCF04F02DCF05F02ECF06F02F
:1001100003C007F004C008F005C009F006C00AF0EB
:10012000D8800AAED8900AE30A1E091E081E076C82
:1001300005E1082A03E1092AD8B40A2A23CF0BF0E3
:1001400024CF0CF0E86A0F0124BFFF0E0D6E0E6E77
:10015000D8902731106E26310F6ED89010320F32A2
:100160002851E840E840C00B10122841E8403F0BFE
:10017000E8BAC009116E126A11BE12680F500B5C0A
:100180000F6E10500C58106E11500D58116E125009
:100190000E58126ED89012AED880D8A04ED0125001
:1001A000800F800F08E1000E115C05E1000E105C6D
:1001B00002E1010E0F5CD8B040D00A340A30166E4E
:1001C0000930156E0830146E0730136E31CF17F0FA
:1001D00032CF18F0E86A0F0132BFFF0E196E800FA0
:1001E000F36E1650800FF35C08E11550195C05E1C1
:1001F0001450185C02E11350175C1FE30C50156E8D
:1002000015260D34166ED890153616360B44E84474
:10021000FC0B146E0B50E844E844030B15120F015D
:10022000256B1450266F1550276F1650286F2B6BB7
:100230002C6B2D6B2E6BA8EF04F00850076E095045
:10024000086ED89008320732D890083207320A5028
:10025000E840E840C00B08120A40E8403F0BE8BA0B
:10026000C0090A6A083408300A6E0730096EE86A65
:100270000ABEFF0E0B6E0C6E07C00DF008C00EF02C
:10028000E86A08BEFF0E136EE56E1350E56E0E5061
:10029000E56E0D50E56E0C50E56E0B50E56E0A50A4
:1002A000E56E0950E56EEEEC23F0096EF3CF0AF02F
:1002B000F4CF0BF0E9CF0CF0080EE12631CF0DF0B2
:1002C00032CF0EF0E86A0F0132BFFF0E136E146ECC
:1002D000E56E1350E56E0E50E56E0D50E56E0C5058
:1002E000E56E0B50E56E0A50E56E0950E56EC3EC05
:1002F00027F0096EF3CF0AF0080EE12629CF0BF0A4
:100300002ACF0CF0E86A0F012ABFFF0E156E0C50C1
:10031000196E192615341A6ED89019361A360B44F0
:10032000E844FC0B186E0B50E844E844030B191228
:10033000176AD88006AED890D8B064D109C00BF047
:100340000AC00CF0E86A0ABEFF0E156E800FF36E4D
:100350001250800FF35C08E11150155C05E110505C
:100360000C5C02E10F500B5CD8B024D10650800F1A
:10037000F36E1A50800FF35C08E11950055C05E13B
:100380001850045C02E11750035CD8B0ECD02FCFBA
:100390000BF030CF0CF0E86A0F0130BFFF0E156E86
:1003A000166E03500B2604500C22055015220650E1
:1003B00016220B500F012B6F0C502C6F15502D6F08
:1003C00016502E6F31CF0BF032CF0CF02FCF15F02F
:1003D00030CF16F00C50800FF36E1650800FF35C88
:1003E00002E115500B5CD8B0A2D02BCF1BF02CCF64
:1003F0001CF02DCF1DF02ECF1EF0D8901D30206E9A
:100400001C301F6ED89020321F321E50E840E8404A
:10041000C00B20121E40E8403F0BE8BAC009226A18
:100420001F50076E2050086E08340830206E0730C9
:100430001F6EE86A20BEFF0E216E226E07C023F0F9
:1004400008C024F0E86A08BEFF0E256EE56E255050
:10045000E56E2450E56E2350E56E2250E56E215086
:10046000E56E2050E56E1F50E56EEEEC23F01F6E3A
:10047000F3CF20F0F4CF21F0E9CF22F0080EE126EF
:100480000BC023F00CC024F0E86A0CBEFF0E256EF2
:10049000E56E2550E56E2450E56E2350E56E225042
:1004A000E56E2150E56E2050E56E1F50E56EC3EC01
:1004B00027F01F6EF3CF20F0080EE1261F50096EC3
:1004C00020500A6E09C01FF00AC020F0E86A0ABE78
:1004D000FF0E216E226E1250800FF36E2250800F9D
:1004E000F35C08E12150115C05E12050105C02E151
:1004F0001F500F5C1CE20B50155C0B6E0C50165815
:100500000C6EE86A0CBEFF0E156E166E0B501B5E6D
:100510000C501C5A15501D5A16501E5A1B500F01D4
:100520002B6F1C502C6F1D502D6F1E502E6F1A50AC
:10053000800FF36E0F012E51800FF35C08E12D51F7
:10054000195C05E12C51185C02E12B51175CD8B005
:10055000D8D117500F012B6F18502C6F19502D6FD9
:100560001A502E6FCED11A50800FF36E0650800FA6
:10057000F35C08E10550195C05E10450185C02E1E8
:100580000350175CD8B0BDD10D50035C0B6E0E50FC
:1005900004580C6E13500558156E14500658166EFC
:1005A0000B500F012B6F0C502C6F15502D6F1650E8
:1005B0002E6FA7D12FCF0BF030CF0CF0E86A0F01D0
:1005C00030BFFF0E156E166E0D500B260E500C220E
:1005D00013501522145016220B50035C0B6E0C5056
:1005E00004580C6E15500558156E16500658166EA8
:1005F0000B500F012B6F0C502C6F15502D6F165098
:100600002E6F7FD10A1E096CD8B40A2A09C00BF0DC
:100610000AC00CF0E86A0ABEFF0E156E166E125084
:10062000800FF36E1650800FF35C08E11550115CDB
:1006300005E10C50105C02E10B500F5CD8B03ED1CC
:100640001A1C166E191C156E181C0C6E171C0B6EDE
:100650000B2A04E10C2A02E1154A162A1650800FD3
:10066000F36E0650800FF35C08E10550155C05E160
:1006700004500C5C02E103500B5CD8B0F8D02FCFD3
:1006800017F030CF18F0E86A0F0130BFFF0E196E77
:100690001A6E1750035C176E18500458186E1950D4
:1006A0000558196E1A5006581A6E17500F012B6F05
:1006B00018502C6F19502D6F1A502E6F31CF17F024
:1006C00032CF18F02FCF19F030CF1AF01850800F1A
:1006D000F36E1A50800FF35C02E11950175CD8B02A
:1006E000AAD02BCF1BF02CCF1CF02DCF1DF02ECF7E
:1006F0001EF0D8901D30206E1C301F6ED890203216
:100700001F321E50E840E840C00B20121E40E84057
:100710003F0BE8BAC009216E226A21BE2268221E60
:10072000211E201E1F6C05E1202A03E1212AD8B4D6
:10073000222A1F50076E2050086E08340830206EA1
:1007400007301F6EE86A20BEFF0E216E226EE86A37
:1007500008BEFF0E236EE56E2350E56E0850E56E71
:100760000750E56E2250E56E2150E56E2050E56E93
:100770001F50E56EEEEC23F0076EF3CF08F0F4CFD8
:100780001FF0E9CF20F0080EE12617C021F018C0B5
:1007900022F0E86A18BEFF0E236EE56E2350E56E68
:1007A0002250E56E2150E56E2050E56E1F50E56E3B
:1007B0000850E56E0750E56EC3EC27F0076EF3CFE7
:1007C00008F0080EE126081E076C02E1082A00E185
:1007D0000750096E08500A6EE86A0ABEFF0E076EDF
:1007E000800FF36E1250800FF35C08E11150075C2C
:1007F00005E110500A5C02E10F50095C1CE2175041
:10080000195C176E18501A58186EE86A18BEFF0E59
:10081000076E086E17501B2618501C2207501D2209
:1008200008501E221B500F012B6F1C502C6F1D50A7
:100830002D6F1E502E6F0F012E51800FF36E16502C
:10084000800FF35C08E115502D5D05E10C502C5D27
:1008500002E10B502B5DD8B054D00B500F012B6F21
:100860000C502C6F15502D6F16502E6F4AD006501D
:10087000800FF36E1650800FF35C08E11550055C95
:1008800005E10C50045C02E10B50035CD8B039D098
:100890000D500324076E0E500420086E13500520DF
:1008A000096E145006200A6E07500F012B6F085076
:1008B0002C6F09502D6F0A502E6F23D02FCF07F0C9
:1008C00030CF08F0E86A0F0130BFFF0E096E0A6EE4
:1008D00007500D2608500E22095013220A501422E8
:1008E0000D5003260E5004221350052214500622E8
:1008F00003500F012B6F04502C6F05502D6F0650C5
:100900002E6FD8900F012D31046E2C31036ED890CC
:10091000043203322E51E840E840C00B04122E414D
:10092000E8403F0BE8BAC009056E066A05BE0668D6
:10093000255103262651042227510522285106223B
:100940000350256F0450266F0550276F0650286FFF
:10095000E56A100EE56E800EE56E0F0EE56E230E55
:10096000E56E0250E56E0150E56E0050E56E70ECEC
:100970002EF0080EE126E4CF25F0E4CF24F0E4CFFA
:1009800023F0E4CF22F0E4CF21F0E4CF20F0E4CF55
:100990001FF0E4CF1EF0E4CF1DF0E4CF1CF0E4CF55
:1009A0001BF0E4CF1AF0E4CF19F0E4CF18F0E4CF55
:1009B00017F0E4CF16F0E4CF15F0E4CF14F0E4CF55
:1009C00013F0E4CF12F0E4CF11F0E4CF10F0E4CF55
:1009D0000FF0E4CF0EF0E4CF0DF0E4CF0CF0E4CF55
:1009E0000BF0E4CF0AF0E4CF09F0E4CF08F0E4CF55
:1009F00007F0E4CF06F0E4CF05F0E4CF04F0E4CF55
:100A000003F0E4CF02F0E4CF01F0E4CF00F0E4CF54
:100A1000D9FF1200D9CFE5FFE1CFD9FF00C0E5FF34
:100A200001C0E5FF02C0E5FF03C0E5FF04C0E5FF2C
:100A300005C0E5FF06C0E5FF07C0E5FF08C0E5FF0C
:100A400009C0E5FF0AC0E5FF0BC0E5FF0CC0E5FFEC
:100A50000DC0E5FF0EC0E5FF0FC0E5FF10C0E5FFCC
:100A600011C0E5FF12C0E5FF13C0E5FF14C0E5FFAC
:100A700015C0E5FF16C0E5FF17C0E5FF18C0E5FF8C
:100A800019C0E5FF1AC0E5FF1BC0E5FF1CC0E5FF6C
:100A90001DC0E5FF1EC0E5FF020EDBCF00F0030E18
:100AA000DBCF01F0040EDBCF02F0050EDBCF03F04D
:100AB000060EDBCF04F0070EDBCF05F0080EDBCF10
:100AC00006F0090EDBCF07F00A0EDBCF08F0096A4B
:100AD0000A6A02C00DF00D50800A0DE102500101BA
:100AE0007C6F01507B6F00507A6F010E016E7A0EA1
:100AF000006E800E026E03C0E9FF04C0F3FF0550D4
:100B000005EC3DF00B6E0B50D8B4F8EF08F00B502D
:100B1000250A02E0DFEF08F00C6A0D6A0E6A0F6A20
:100B2000106A0A0E116E126A136A146A200E156E8C
:100B30001668176A2B0E186E032A02E3044A052A68
:100B400003C0E9FF04C0F3FF055005EC3DF0196E4A
:100B5000250A13E11950E56E0250E56E0150E56E6D
:100B60000050E56EE7EC2DF0040EE126094A0A2A52
:100B7000032A02E3044A052ABED71950300A06E1C7
:100B8000300E156E032A02E3044A052A03C0E9FF6A
:100B900004C0F3FF055005EC3DF02D0A06E1010EFF
:100BA000146E032A02E3044A052A03C0E9FF04C0C5
:100BB000F3FF055005EC3DF0200A08E1010E176E29
:100BC000200E186E032A02E3044A052A03C0E9FF37
:100BD00004C0F3FF055005EC3DF02B0A06E1010EC1
:100BE000176E032A02E3044A052A03C0E9FF04C082
:100BF000F3FF055005EC3DF0196E800F4F0F2DE30C
:100C00001950800F460F29E203C019F004C01AF0F2
:100C100005C01BF019C0E9FF1AC0F3FF1B5005EC1B
:100C20003DF01C6E800F500F12E31C50800F460FDA
:100C30000EE213500A0DF3CF1DF01D501C26D00EEE
:100C40001C24136E192A02E31A4A1B2AE3D719C07F
:100C500003F01AC004F01BC005F003C0E9FF04C094
:100C6000F3FF055005EC3DF02E0A2EE1032A02E3C6
:100C7000044A052A166A03C019F004C01AF005C018
:100C80001BF019C0E9FF1AC0F3FF1B5005EC3DF043
:100C90001C6E800F500F12E31C50800F460F0EE2A7
:100CA00016500A0DF3CF1DF01D501C26D00E1C242B
:100CB000166E192A02E31A4A1B2AE3D719C003F059
:100CC0001AC004F01BC005F003C0E9FF04C0F3FF25
:100CD000055005EC3DF0196E6C0A07E1010E0C6E33
:100CE000032A02E3044A052A09D01950680A06E1DA
:100CF000010E0E6E032A02E3044A052A03C0E9FF2F
:100D000004C0F3FF055005EC3DF0750A06E1010E45
:100D1000106E032A02E3044A052A03C0E9FF04C057
:100D2000F3FF055005EC3DF0196E730A05E1010E65
:100D30000D6E200E156E3FD01950780A03E1100E8B
:100D4000116E39D01950580A05E1100E116E010EBE
:100D5000126E31D01950630A02E1116A2CD0195079
:100D60006F0A03E1080E116E26D01950660A03E1DE
:100D7000010E0F6E20D01950640A1DE01950690A47
:100D80001AE0105005E0FF0E03260422052213D0BE
:100D90001950E56E0250E56E0150E56E0050E56EAB
:100DA000E7EC2DF0040EE126094A0A2A032A02E3A1
:100DB000044A052AA0D60D5021E00650030F0D6EFF
:100DC000000E0720196E000E08201A6E0DC006F0E6
:100DD00019C007F01AC008F0FD0E0D26FF0E1922EB
:100DE0001A220DC0E9FF19C0F3FF1A50D0EC3BF0F6
:100DF0000D6EF3CF19F0F4CF1AF032D10F50D8B4F2
:100E00003ED00650040F0F6E000E07201B6E000E22
:100E100008201C6E0FC006F01BC007F01CC008F0B5
:100E2000FC0E0F26FF0E1B221C220FC0E9FF1BC069
:100E3000F3FF1C5039EC3BF00F6EF3CF1BF0F4CFF7
:100E40001CF0E9CF1DF0040E196E000E0D6E800E21
:100E50001A6E1650E56E240EE56E040EE56E000E59
:100E6000E56E1D50E56E1C50E56E1B50E56E0F5093
:100E7000E56EDCEC22F0080EE1261668F1D016686B
:100E80000C5023E00650040F0C6E000E07200F6E6E
:100E9000000E08201B6E0CC006F00FC007F01BC030
:100EA00008F0FC0E0C26FF0E0F221B220CC0E9FFDF
:100EB0000FC0F3FF1B5039EC3BF00C6EF3CF0FF07B
:100EC000F4CF1BF0E9CF1CF06AD00E5032E0065090
:100ED000020F0E6E000E07201D6E000E08201E6E03
:100EE0000EC006F01DC007F01EC008F0FE0E0E2654
:100EF000FF0E1D221E220EC0E9FF1DC0F3FF1E5073
:100F00008FEC3CF00E6E0EC00CF0E86A0EBEFF0EC9
:100F10000F6E1B6E1C6E11500A0A03E11050D8B4FC
:100F20003ED00C500E6E0EC00CF00F6A1B6A1C6A8D
:100F300036D00650020F0E6E000E07201D6E000EFA
:100F400008201E6E0EC006F01DC007F01EC008F07F
:100F5000FE0E0E26FF0E1D221E220EC0E9FF1DC032
:100F6000F3FF1E508FEC3CF00E6EF3CF1DF00EC061
:100F70000CF01DC00FF0E86A1DBEFF0E1B6E1C6E4C
:100F800011500A0A02E110500AE00C500E6E0F5088
:100F90001D6E0EC00CF01DC00FF01B6A1C6A040E03
:100FA000196E010E0D6E800E1A6E1150D8B440D01D
:100FB000105013E01150E56E040EE56E010EE56E63
:100FC0001C50E56E1B50E56E0F50E56E0C50E56E43
:100FD000E7EC26F0070EE12612D01150E56E040E64
:100FE000E56E010EE56E1C50E56E1B50E56E0F5070
:100FF000E56E0C50E56E05EC32F0070EE126175059
:101000002FE00DC0E9FF19C0F3FF1A5005EC3DF0C9
:101010002D0A26E0FF0E0D2619221A2218C0E5FF20
:101020000DC0E9FF19C0F3FF1A5083EC3DF018D052
:101030000CC0E5FF0DC0E9FF19C0F3FF1A5083ECA7
:101040003DF00D50010F0C6E000E19200E6E000EBB
:101050001A20E56A0CC0E9FF0EC0F3FF83EC3DF0F7
:101060000DC00CF019C00EF01AC00FF013C010F034
:10107000105010E00CC0E9FF0EC0F3FF0F5005EC5C
:101080003DF0176E175006E00C2A02E30E4A0F2AB5
:101090001006EED710C013F014501EE109C00CF07A
:1010A0000AC00EF010C00FF00F5010E01550E56EA2
:1010B0000250E56E0150E56E0050E56EE7EC2DF054
:1010C000040EE1260C4A0E2A0F06EED70CC009F0DA
:1010D0000EC00AF00FC013F016C00CF00DC00DF0DA
:1010E00019C00EF01AC00FF009C010F00AC015F0B8
:1010F0000DC0E9FF0EC0F3FF0F5005EC3DF0166E7A
:101100001650D8B43ED00CC016F0176A161E171E23
:101110001650171005E00CC016F00C06165031E002
:101120000DC0E9FF0EC0F3FF0F5005EC3DF0116E4E
:10113000125010E01150E56E4CEC3CF0166EE65289
:10114000165004E01150166E169A02D011C016F017
:1011500016C011F01150E56E0250E56E0150E56EBB
:101160000050E56EE7EC2DF0040EE1260D2A02E3B7
:101170000E4A0F2A104A152A1350D8B4B9D71306AD
:10118000B7D710C009F015C00AF014502BE010C0FA
:101190000CF015C00DF013C00EF00E501FE0200E25
:1011A000E56E0250E56E0150E56E0050E56EE7EC2D
:1011B0002DF0040EE1260C4A0D2A0E06EED70B5038
:1011C000E56E0250E56E0150E56E0050E56EE7EC0D
:1011D0002DF0040EE126094A0A2A04D00CC009F0B9
:1011E0000DC00AF0032A02E3044A052A7BEF05F04A
:1011F0000AC0F3FF0950E4CF1EF0E4CF1DF0E4CFA6
:101200001CF0E4CF1BF0E4CF1AF0E4CF19F0E4CFE8
:1012100018F0E4CF17F0E4CF16F0E4CF15F0E4CFE8
:1012200014F0E4CF13F0E4CF12F0E4CF11F0E4CFE8
:1012300010F0E4CF0FF0E4CF0EF0E4CF0DF0E4CFE8
:101240000CF0E4CF0BF0E4CF0AF0E4CF09F0E4CFE8
:1012500008F0E4CF07F0E4CF06F0E4CF05F0E4CFE8
:1012600004F0E4CF03F0E4CF02F0E4CF01F0E4CFE8
:1012700000F0E4CFD9FF1200D9CFE5FFE1CFD9FFCD
:1012800000C0E5FF01C0E5FF02C0E5FF03C0E5FFC8
:1012900004C0E5FF05C0E5FF06C0E5FF07C0E5FFA8
:1012A00008C0E5FF09C0E5FF0AC0E5FF0BC0E5FF88
:1012B0000CC0E5FF0DC0E5FF020EDBCF00F0030E12
:1012C000DBCF01F0040EDBCF02F00050090F066EF9
:1012D000000E0120076E000E0220086E0B6E0750F4
:1012E0000A6E0650096EE56A0D0EE56E0B50E56E4E
:1012F0000A50E56E0950E56E800EE56E010EE56E52
:10130000300EE56E70EC2EF0080EE12600C009F0FC
:1013100001C00AF002C00BF0E56AE56E0B50E56E05
:101320000A50E56E0950E56E800EE56E040EE56E1E
:10133000810EE56E70EC2EF0080EE12681C403F0FC
:101340000350010A04E00350030A01E01FD1010128
:1013500038510101455D036E0101395101014659C2
:10136000046E01013A510101475901013B5101014C
:101370004859035001017F6F0450806F01014551AE
:101380000101386F010146510101396F01014751D7
:1013900001013A6F0101485101013B6F01017F5189
:1013A0008011D8A47FD0FEEC39F0036EF3CF04F0A7
:1013B000F4CF05F0E9CF09F001013D510A6E3E512D
:1013C0000B6E3F510C6E40510D6E0A50035E0B5078
:1013D000045A0C50055A0D50095A03500101566F1A
:1013E0000450576F0550586F7F0E0914596F010153
:1013F0003CB125D0010157355931046E5831036E87
:10140000043404320332000E04BEFF0E096E056E72
:1014100086C40AF00B6A0C6A0D6A0D50800FF36ED9
:101420000950800FF35C08E105500C5C05E10450A5
:101430000B5C02E103500A5C02E201013C81010104
:101440003CB14AD034C103F035C104F036C105F0D7
:1014500037C109F001015951800FF36E0950800F17
:10146000F35C08E10550585D05E10450575D02E169
:101470000350565D08E203C056F104C057F105C0A1
:1014800058F109C059F1010149A303D0010E036EBF
:1014900001D0036803C07FF10101806B03AE01D06E
:1014A00080691AD001013C9141C156F142C157F106
:1014B00043C158F144C159F1010156510101346F42
:1014C000010157510101356F010158510101366F7A
:1014D000010159510101376F01015951800F800FEE
:1014E00008E1000E585D05E1000E575D02E1010EB6
:1014F000565D06E201015A6B5B6B5C6B5D6B46D01F
:1015000001015651036E5751046E5851056E5951E1
:10151000E56E0550E56E0450E56E0350E56E010E74
:10152000E56E000EE56AE56AE56AD2EC2CF0036E22
:10153000F3CF04F0F4CF05F0E9CF09F0080EE1266F
:101540007FC10AF080C10BF0E86A010180BFFF0E85
:101550000C6E0D6E0950E56E0550E56E0450E56E9B
:101560000350E56E0D50E56E0C50E56E0B50E56EC8
:101570000A50E56EEEEC23F001015A6FF3CF5BF1F8
:10158000F4CF5CF1E9CF5DF1080EE126020E040113
:10159000815DD8A045D1010149A142D10050230F5E
:1015A000036E000E0120046E000E0220E56E045052
:1015B000E56E0350E56E0EEC00F0030EE1260050E0
:1015C000230F036E000E0120046E000E0220056E34
:1015D000020E0326000E0422052203C0E9FF04C008
:1015E000F3FF055039EC3BF0F3CF04F0F4CF05F0F6
:1015F000E9CF09F00450036E0550046ED890043210
:101600000332D890043203320950E840E840C00B5E
:1016100004120940E8403F0BE8BAC009056E096AA8
:1016200005BE096801014551035C01015E6F0101BE
:101630004651045801015F6F0101475105580101EE
:10164000606F0101485109580101616FD88061AF95
:10165000D89022E30401831D046E821D036E034AA9
:10166000042AE86A04BEFF0E056E096E010161518D
:10167000800FF36E0950800FF35C08E10550605D48
:1016800005E104505F5D02E103505E5D05E3010189
:101690005E6B5F6B606B616B01016151800F800F4E
:1016A00008E1000E605D05E1000E5F5D02E1010EE4
:1016B0005E5D1EE382C403F083C404F0E86A0401A3
:1016C00083BFFF0E056E800FF36E01016151800F25
:1016D000F35C08E16051055C05E15F51045C02E1E7
:1016E0005E51035C05E301015E6B5F6B606B616BD8
:1016F0000401875109E0E86CD89001015E375F373B
:1017000060376137010FF9E301016151800F800FEC
:1017100008E1000E605D05E1800E5F5D02E1000EF4
:101720005E5D07E301015E697F0E5F6F606B616B59
:1017300014D001016151800F810F08E1FF0E605D3F
:1017400005E1800E5F5D02E1000E5E5D06E20101D3
:101750005E6B800E5F6F606961690050330F036ECE
:10176000000E0120046E000E0220056E01015E5184
:10177000096E5F51E56E0950E56E0550E56E045047
:10178000E56E0350E56E69EC18F0050EE1260401E4
:101790008151030A23E10050330F036E000E012034
:1017A000046E000E0220056E0B0E0326000E0422AE
:1017B000052203C0E9FF04C0F3FF055039EC3BF0FC
:1017C000F3CF04F0F4CF05F00450036E0550046E1F
:1017D00003500101306F0450316F22D00050330F9D
:1017E000036E000E0120046E000E0220056E0B0E2B
:1017F0000326000E0422052203C0E9FF04C0F3FF04
:10180000055039EC3BF0F3CF04F0F4CF05F0045071
:10181000036E0550046E03500101326F0450336FA4
:1018200081C403F00350010A04E00350030A01E0FD
:101830007DD030C103F031C104F0E86A010131BF4D
:10184000FF0E056E096E01015A51035C01015E6FC6
:1018500001015B51045801015F6F01015C510558A2
:101860000101606F01015D5109580101616F800F35
:10187000800F08E1000E605D05E1800E5F5D02E112
:10188000000E5E5D07E301015E697F0E5F6F606BB6
:10189000616B14D001016151800F810F08E1FF0ECF
:1018A000605D05E1800E5F5D02E1000E5E5D06E2B7
:1018B00001015E6B800E5F6F606961690050440FCB
:1018C000036E000E0120046E000E0220056E010161
:1018D0005E51096E5F51E56E0950E56E0550E56E8B
:1018E0000450E56E0350E56E69EC18F0050EE12634
:1018F000440E0026000E012202220B0E0026000ECE
:101900000122022200C0E9FF01C0F3FF025039ECBE
:101910003BF0F3CF01F0F4CF02F00150006E025023
:10192000016E00500101326F0150336F0850086E94
:10193000E56A0D0EE56E800EE56E010EE56E300E69
:10194000E56E0850E56E0750E56E0650E56E70ECEA
:101950002EF0080EE126E4CF0DF0E4CF0CF0E4CF3A
:101960000BF0E4CF0AF0E4CF09F0E4CF08F0E4CFC5
:1019700007F0E4CF06F0E4CF05F0E4CF04F0E4CFC5
:1019800003F0E4CF02F0E4CF01F0E4CF00F0E4CFC5
:10199000D9FF120025642025640A000005C0E5FF78
:1019A00006C0E5FF07C0E5FF08C0E5FF09C0E5FF89
:1019B0000AC0E5FF0BC0E5FF0CC0E5FF0DC0E5FF69
:1019C0000EC0E5FF0FC0E5FF10C0E5FF11C0E5FF49
:1019D00012C0E5FF13C0E5FF14C0E5FF15C0E5FF29
:1019E00016C0E5FF17C0E5FF18C0E5FF19C0E5FF09
:1019F0001AC0E5FF1BC0E5FF1CC0E5FF1DC0E5FFE9
:101A0000000E00B0050F066AF60F02E3062AFCD7A7
:101A10000A0F056E042E03D0FB0F01E3062A0650C1
:101A200000B0020F00B2050F076AF60F02E3072AA3
:101A3000FCD70A0F066E042E03D0FB0F01E3072A22
:101A4000075000B0060F00B2020F00B4050F086A7D
:101A5000F60F02E3082AFCD70A0F076E042E03D004
:101A6000FB0F01E3082A085000B2010F00B4020F77
:101A700000B6050F096AF60F02E3092AFCD70A0F20
:101A8000086E042E03D0FB0F01E3092A095000B0B1
:101A9000090F00B2080F00B4060F00B6020F00B81D
:101AA000050F0A6AF60F02E30A2AFCD70A0F096E2D
:101AB000042E03D0FB0F01E30A2A0A5000B0030FE3
:101AC00000B2070F00B4050F00B6010F00B8020FF7
:101AD00000BA050F0B6AF60F02E30B2AFCD70A0FB8
:101AE0000A6E042E03D0FB0F01E30B2A0B5000B04B
:101AF000050F00B4010F00B6030F00B8060F00BABF
:101B0000020F00BC050F0C6AF60F02E30C2AFCD78B
:101B10000A0F0B6E042E03D0FB0F01E30C2A0C50AE
:101B200000B0070F00B2050F00BA010F00BC020F92
:101B300000BE050F0D6AF60F02E30D2AFCD70A0F4F
:101B40000C6E042E03D0FB0F01E30D2A0D5000B0E4
:101B5000070F00B2050F00B4010F00B6020F00B866
:101B6000040F00BA080F00BC060F00BE020F01B040
:101B7000050F0E6AF60F02E30E2AFCD70A0F0D6E50
:101B8000042E03D0FB0F01E30E2A0E5000B0040F09
:101B900000B2090F00B4090F00B6080F00B8060F15
:101BA00000BA020F00BC050F00BE010F01B0020F0A
:101BB00001B2050F0F6AF60F02E30F2AFCD70A0FD6
:101BC0000E6E042E03D0FB0F01E30F2A0F5000B05E
:101BD000040F00B2080F00B4070F00B6050F00B8DD
:101BE000010F00BA030F00BC060F00BE030F01B0C7
:101BF000060F01B2020F01B4050F106AF60F02E3DF
:101C0000102AFCD70A0F0F6E042E03D0FB0F01E33E
:101C1000102A105000B0060F00B2020F00B4050FDA
:101C200000B6010F00B8030F00BA060F00BC020F88
:101C300000BE050F01B2010F01B4020F01B6050F7E
:101C4000116AF60F02E3112AFCD70A0F106E042E58
:101C500003D0FB0F01E3112A115000B0040F00B2B2
:101C6000090F00B4080F00B6070F00B8040F00BA40
:101C7000080F00BC070F00BE040F01B0090F01B22E
:101C8000080F01B4060F01B6020F01B8050F126A62
:101C9000F60F02E3122AFCD70A0F116E042E03D0AE
:101CA000FB0F01E3122A125000B4010F00B6030F1C
:101CB00000B8070F00BA040F00BC090F00BE090FDF
:101CC00001B0080F01B2070F01B4050F01B6010FF3
:101CD00001B8020F01BA050F136AF60F02E3132AC7
:101CE000FCD70A0F126E042E03D0FB0F01E3132A58
:101CF000135000B0060F00B2020F00B4040F00B67C
:101D0000080F00B8060F00BA030F00BC060F00BE94
:101D1000030F01B0070F01B2050F01B4010F01B6A7
:101D2000030F01B8060F01BA020F01BC050F146AB8
:101D3000F60F02E3142AFCD70A0F136E042E03D009
:101D4000FB0F01E3142A145000B0090F00B2090F71
:101D500000B4080F00B6060F00B8030F00BA070F53
:101D600000BC040F00BE090F01B0080F01B2070F3D
:101D700001B4050F01BA010F01BC020F01BE050F2E
:101D8000156AF60F02E3152AFCD70A0F146E042E0B
:101D900003D0FB0F01E3152A155000B0050F00B268
:101DA000010F00B4030F00B6070F00B8050F00BC09
:101DB000010F00BE020F01B0050F01B2010F01B407
:101DC000030F01B6070F01B8040F01BA080F01BCD9
:101DD000060F01BE020F02B0050F166AF60F02E3EE
:101DE000162AFCD70A0F156E042E03D0FB0F01E351
:101DF000162A165000B2010F00B4020F00B6040FED
:101E000000B8090F00BA090F00BC080F00BE060F8A
:101E100001B0020F01B2050F01B8010F01BA020FA4
:101E200001BC050F01BE010F02B0020F02B2050F87
:101E3000176AF60F02E3172AFCD70A0F166E042E54
:101E400003D0FB0F01E3172A175000BA010F00BCA3
:101E5000030F00BE070F01B0050F01B4010F01B65B
:101E6000020F01B8040F01BA080F01BC060F01BE32
:101E7000030F02B0060F02B2020F02B4050F186A78
:101E8000F60F02E3182AFCD70A0F176E042E03D0B0
:101E9000FB0F01E3182A185001B0010F01B2030F24
:101EA00001B4060F01B6020F01B8040F01BA080F02
:101EB00001BC070F01BE050F02B2010F02B4020FF1
:101EC00002B6050F196AF60F02E3192AFCD70A0FAA
:101ED000186E042E03D0FB0F01E3192A195001B626
:101EE000010F01B8020F01BA040F01BC090F01BEB6
:101EF000090F02B0090F02B2080F02B4060F02B6B2
:101F0000020F02B8050F1A6AF60F02E31A2AFCD76D
:101F10000A0F196E042E03D0FB0F01E31A2A1A5080
:101F200001BE010F02B0030F02B2070F02B4050F8A
:101F300002B6010F02B8020F02BA050F1B6AF60FB4
:101F400002E31B2AFCD70A0F1A6E042E03D0FB0FE4
:101F500001E31B2A1B5002B4010F02B6030F02B8A3
:101F6000060F02BA020F02BC050F1C6AF60F02E34D
:101F70001C2AFCD70A0F1B6E042E03D0FB0F01E3B3
:101F80001C2A1C5002BA010F02BC020F02BE050F30
:101F90001D6AF60F02E31D2AFCD70A0F1C6E042EE1
:101FA00003D0FB0F01E31D2A300FEE6E1B50300FE4
:101FB000EE6E1A50300FEE6E1950300FEE6E185054
:101FC000300FEE6E1750300FEE6E1650300FEE6E73
:101FD0001550300FEE6E1450300FEE6E1350300F60
:101FE000EE6E1250300FEE6E1150300FEE6E10503C
:101FF000300FEE6E0F50300FEE6E0E50300FEE6E53
:102000000D50300FEE6E0C50300FEE6E0B50300F47
:10201000EE6E0A50300FEE6E0950300FEE6E085023
:10202000300FEE6E0750300FEE6E0650300FEE6E32
:102030000550300FEE6E170EE4CF1DF0E4CF1CF00C
:10204000E4CF1BF0E4CF1AF0E4CF19F0E4CF18F09E
:10205000E4CF17F0E4CF16F0E4CF15F0E4CF14F09E
:10206000E4CF13F0E4CF12F0E4CF11F0E4CF10F09E
:10207000E4CF0FF0E4CF0EF0E4CF0DF0E4CF0CF09E
:10208000E4CF0BF0E4CF0AF0E4CF09F0E4CF08F09E
:10209000E4CF07F0E4CF06F0E4CF05F0120000C073
:1020A000E5FF01C0E5FF02C0E5FF03C0E5FF05C095
:1020B000E5FFB7EC3DF0ADEC35F0330ECD6E9D8015
:1020C0009F80899289908A8A898492929290939A29
:1020D000929404019283800E006E040E016E0F0E26
:1020E000036E380E0026035001220F0E036E800E81
:1020F000005E0350015A800E026E040E036E0F0E36
:10210000056E380E0226055003220F0E056E800E56
:10211000025E0550035A02C0E9FF03C0EAFFEFCF99
:1021200002F0029200C0E9FF01C0EAFF02C0EFFF27
:102130009384810E006E0F0E016E0F0E036E380E2B
:102140000026035001220F0E036E800E005E035026
:10215000015A810E026E0F0E036E0F0E056E380EC1
:102160000226055003220F0E056E800E025E0550FA
:10217000035A02C0E9FF03C0EAFFEFCF02F0029466
:1021800000C0E9FF01C0EAFF02C0EFFF9382810EA9
:10219000006E0F0E016E0F0E036E380E00260350F8
:1021A00001220F0E036E800E005E0350015A810E55
:1021B000026E0F0E036E0F0E056E380E02260550CE
:1021C00003220F0E056E800E025E0550035A02C0F8
:1021D000E9FF03C0EAFFEFCF02F0029200C0E9FF7F
:1021E00001C0EAFF02C0EFFF0C0E0F015D6F0F018F
:1021F0005D9B5D990F015E6B0401936B020E946F02
:10220000956B0A0E966F976B100E986F070E996F6D
:102210009A919A83800EE56E040EE56EB60EE56E19
:1022200024EC34F0030EE126800EE56E040EE56E1C
:10223000D70EE56E04EC2AF0030EE126800EE56E63
:10224000040EE56EC60EE56E04EC2AF0030EE126E0
:102250000401B16BB26BB36BB46BB591B5959C6B6C
:102260009D6B9E6B9F6BA46BA56BA66BA76B010E02
:10227000946F956B320E966F976B060E996F9A93CB
:10228000280EBC6FBD6B320EC26FC36BC46FC56BC3
:10229000E56AE56A800EE56E040EE56EB60EE56E43
:1022A00045EC2CF0050EE126780E0401C66F0A0EEF
:1022B000C76FC86BD569030ED66FB58192948984B8
:1022C0008A96899E8B80898C9396929E9490929CFC
:1022D00004019283800E006E040E016E0F0E036ED9
:1022E000380E0026035001220F0E036E800E005E92
:1022F0000350015A800E026E040E036E0F0E056E1F
:10230000380E0226055003220F0E056E800E025E67
:102310000550035A02C0E9FF03C0EAFFEFCF02F005
:10232000029200C0E9FF01C0EAFF02C0EFFF948CF7
:10233000820E006E0F0E016E0F0E036E380E002619
:10234000035001220F0E036E800E005E0350015AEF
:10235000820E026E0F0E036E0F0E056E380E0226F1
:10236000055003220F0E056E800E025E0550035AC3
:1023700002C0E9FF03C0EAFFEFCF02F0029C00C0F9
:10238000E9FF01C0EAFF02C0EFFF948C820E006EED
:102390000F0E016E0F0E036E380E00260350012241
:1023A0000F0E036E800E005E0350015A820E026E05
:1023B0000F0E036E0F0E056E380E02260550032217
:1023C0000F0E056E800E025E0550035A02C0E9FF33
:1023D00003C0EAFFEFCF02F0029C00C0E9FF01C09A
:1023E000EAFF02C0EFFF0C0E666E669A6698676A97
:1023F000636A63820A01006B020E016F026B0A0EB0
:10240000036F046B100E056F070E066F07910783AD
:10241000800EE56E0A0EE56E230EE56E24EC34F0B8
:10242000030EE126800EE56E0A0EE56E440EE56EA3
:1024300004EC2AF0030EE126800EE56E0A0EE56E2E
:10244000330EE56E04EC2AF0030EE1260A011E6B42
:102450001F6B206B216B22912295096B0A6B0B6B12
:102460000C6B116B126B136B146B640E016F026BB0
:10247000320E036F046B010E066FD00E296F070E2C
:102480002A6F880E2F6F130E306F880E316F130E68
:10249000326F400EE56EE56A800EE56E0A0EE56E5F
:1024A000230EE56E45EC2CF0050EE126C80E0A0160
:1024B000336F010E346F356B4269030E436F228117
:1024C000929C898C6DEC2FF09286800E006E0F0E20
:1024D000016E0F0E036E380E002603500122800E8F
:1024E000026E0F0E036E800E005E0350015A0F0E37
:1024F000056E380E0226055003220F0E056E800E63
:10250000025E0550035A02C0E9FF03C0EAFFEFCFA5
:1025100002F0028600C0E9FF01C0EAFF02C0EFFF3F
:10252000030EE56E000EE56A24EC33F0E652E65247
:102530009388810E006E0F0E016E0F0E036E380E23
:102540000026035001220F0E036E800E005E035022
:10255000015A810E026E0F0E036E0F0E056E380EBD
:102560000226055003220F0E056E800E025E0550F6
:10257000035A02C0E9FF03C0EAFFEFCF02F002886E
:1025800000C0E9FF01C0EAFF02C0EFFF0B0EE56EDD
:10259000010EE56E24EC33F0E652E6529488820E8A
:1025A000006E0F0E016E0F0E036E380E00260350E4
:1025B00001220F0E036E800E005E0350015A820E40
:1025C000026E0F0E036E0F0E056E380E02260550BA
:1025D00003220F0E056E800E025E0550035A02C0E4
:1025E000E9FF03C0EAFFEFCF02F0028800C0E9FF75
:1025F00001C0EAFF02C0EFFF100EE56E030EE56EAC
:1026000024EC33F0E652E652948A820E006E0F0EEE
:10261000016E0F0E036E380E0026035001220F0EBE
:10262000036E800E005E0350015A820E026E0F0E82
:10263000036E0F0E056E380E0226055003220F0E94
:10264000056E800E025E0550035A02C0E9FF03C00A
:10265000EAFFEFCF02F0028A00C0E9FF01C0EAFF03
:1026600002C0EFFF110EE56E040EE56E24EC33F0B0
:10267000E652E6529380810E006E0F0E016E0F0E31
:10268000036E380E0026035001220F0E036E800EDB
:10269000005E0350015A810E026E0F0E036E0F0E84
:1026A000056E380E0226055003220F0E056E800EB1
:1026B000025E0550035A02C0E9FF03C0EAFFEFCFF4
:1026C00002F0029000C0E9FF01C0EAFF02C0EFFF84
:1026D000E56A800EE56E0F0EE56E810EE56E000E6A
:1026E000E56AF4EC35F0050EE126FEEC39F0F3CFA7
:1026F00001F0F4CF02F0E9CF03F0880F04018E6FF0
:10270000130E01208F6F000E0220906F000E032029
:10271000916FE4CF05F0E4CF03F0E4CF02F0E4CF13
:1027200001F0E4CF00F0120000C0E5FF01C0E5FFBA
:1027300002C0E5FF03C0E5FF04C0E5FF05C0E5FFFB
:10274000B8EC2BF0ADEC21F0B8EC2BF0B8EC2BF0A2
:102750005DEC29F0FEEC39F0006EF3CF01F0F4CF20
:1027600002F0E9CF03F004018E51005E8F51015A4F
:102770009051025A9151035A039E3F0E035C08E1A7
:10278000FF0E025C05E1FF0E015C02E1FF0E005C42
:10279000D8B01DEF16F0FEEC39F0F3CF01F0F4CF16
:1027A00002F0E9CF03F0880F04018E6F130E0120B1
:1027B0008F6F000E0220906F000E0320916FFAECD5
:1027C00025F0006E0050D8B42AEC16F0010E04017A
:1027D0005F5D02E1900E5E5D04E204015E3F01D0A8
:1027E0005F2B010E04015F5D02E1900E5E5D08E368
:1027F00004019E6B9F6B936B0A010B6B0C6B006B60
:1028000006C0E5FFF2CF06F0F29E0401A9510101D6
:102810003D6F0401AA5101013E6F0401AB5101015A
:102820003F6F0401AC510101406F0401AD51010142
:10283000416F0401AE510101426F0401AF5101012A
:10284000436F0401B0510101446F0401B151010112
:10285000456F0401B2510101466F0401B3510101FA
:10286000476F0401B4510101486F0401B5510101E2
:10287000496F0401AD6BAE6BAF6BB06B06BEF28EF1
:10288000E4CF06F0800EE56E040EE56E930EE56E65
:102890003CEC09F0030EE1269EC481F19FC482F155
:1028A00001018251800F7C0F02E1000E815D04E383
:1028B00001018169030E826F01018251800F840F33
:1028C00002E1010E815D05E2010E0101816FFC0E46
:1028D000826F01018251800F800F02E1010E815D44
:1028E00010E301018251800FF36E04019751800FB4
:1028F000F35C03E196510101815D03E20101816B0B
:10290000826BD880010182AFD89015E30401971D36
:10291000016E961D006E004A012A0150800FF36E71
:1029200001018251800FF35C02E18151005C03E2FE
:102930000101816B826B04019AA309D0B5A507D070
:10294000D880010182AFD89002E3816B826BD8807E
:10295000010182AFD89007E3821D016E811D006ED8
:10296000004A012A04D081C100F082C101F000C0F8
:1029700083F101C084F101018351020BE840010B96
:10298000E838E844F46E0F015D51DF0BF4105D6F21
:1029900001018351010B010BE838F46E0F015D5109
:1029A000EF0BF4105D6F010184358431016E8331CA
:1029B000006E01340132003200500F015E6FD8808A
:1029C000010182AFD89003E38992898002D0899077
:1029D0008982D880010182AFD89003E30401B593C6
:1029E00002D00401B58306C0E5FFF2CF06F0F29EE7
:1029F0000A01165101013D6F0A01175101013E6F95
:102A00000A01185101013F6F0A0119510101406F7C
:102A10000A011A510101416F0A011B510101426F64
:102A20000A011C510101436F0A011D510101446F4C
:102A30000A011E510101456F0A011F510101466F34
:102A40000A0120510101476F0A0121510101486F1C
:102A50000A0122510101496F0A011A6B1B6B1C6BA1
:102A60001D6B06BEF28EE4CF06F0800EE56E0A0EF8
:102A7000E56E000EE56E3CEC09F0030EE1260BCA94
:102A800081F10CCA82F101018251800F7C0F02E1B9
:102A9000000E815D04E301018169030E826F010173
:102AA0008251800F840F02E1010E815D05E2010E6B
:102AB0000101816FFC0E826F01018251800F800F36
:102AC00002E1010E815D10E301018251800FF36E7E
:102AD0000A010451800FF35C03E103510101815DA0
:102AE00003E20101816B826BD880010182AFD89033
:102AF00015E30A01041D016E031D006E004A012A40
:102B00000150800FF36E01018251800FF35C02E1EE
:102B10008151005C03E20101816B826B0A0107A312
:102B200009D022A507D0D880010182AFD89002E356
:102B3000816B826BD880010182AFD89007E3821D40
:102B4000016E811D006E004A012A04D081C100F08F
:102B500082C101F000C083F101C084F10101835101
:102B6000020BE840010BE838E844F46E6650DF0BD6
:102B7000F410666E8351010B010BE838F46E665059
:102B8000EF0BF410666E84358431016E8331006E74
:102B90000134013200320050676ED880010182AFEB
:102BA000D89003E38A96898E02D0899E8A86B8ECF3
:102BB0002BF05DC400F004015D070050D8A43DD0A7
:102BC0005CC45DF401018B2B006A0401B5B1002ADD
:102BD000016AD890BA31036EB931026ED8900332CF
:102BE0000232BB51E840E840C00B0312BB41E84051
:102BF0003F0BE8BAC009046E056A04BE05680150BF
:102C0000E56E0050E56E0550E56E0450E56E03502C
:102C1000E56E0250E56EB451E56EB351E56EB2510A
:102C2000E56EB151E56E000EE56E520EE56EA40E36
:102C3000E56EFDEC36F00D0EE126E4CF05F0E4CFB5
:102C400004F0E4CF03F0E4CF02F0E4CF01F0E4CFEE
:102C500000F0120000C0E5FF01C0E5FF02C0E5FF83
:102C600003C0E5FF04C0E5FF05C0E5FF06C0E5FFC2
:102C700007C0E5FF08C0E5FF09C0E5FF0AC0E5FFA2
:102C80000BC0E5FF006A016A040E015CD8B0E8D110
:102C900004016E2B100E6E5D01E36E6B04016E3944
:102CA000E8441F0B026E036A850E0226010E032202
:102CB00002C0E9FF03C0EAFFEFCF02F0070E6E1576
:102CC000036E010E046E000E056E035006E0E86C04
:102CD000D89004360536010FFCE3066A025004164C
:102CE00006500516045005E1055003E1046A042A64
:102CF00001D0046A0450D880E866D890046A04368B
:102D00000450D8B4C1D704016E51020DF450036EC3
:102D1000F3CF02F0E00E0224046E000E0320056ED5
:102D200004C0E9FF05C0EAFFEECF04F0EFCF05F0E5
:102D300004016BA19DD0950E0224066E0A0E03209D
:102D4000076E06C0E9FF07C0EAFFEECF06F0EFCF3F
:102D500007F00550800FF36E0750800FF35C02E11F
:102D60000650045C03E2046A056A60D0B50E0226D0
:102D70000A0E032202C0E9FF03C0EAFFEECF02F011
:102D8000EFCF03F00350800FF36E0550800FF35C1C
:102D900002E10450025C04E204683F0E056E46D076
:102DA0000650045C086E07500558096EE86A09BEB3
:102DB000FF0E0A6EE56E0A50E56E0950E56E08508A
:102DC000E56EE56AE56A400EE56E000EE56AEEEC3A
:102DD00023F0086EF3CF09F0F4CF0AF0E9CF0BF03F
:102DE000080EE1260650025C066E07500358076E77
:102DF000E86A07BEFF0E026EE56E0250E56E0750F0
:102E0000E56E0650E56E0B50E56E0A50E56E095012
:102E1000E56E0850E56ED2EC2CF0026EF3CF03F0B5
:102E2000080EE1260250046E0350056E04016A513B
:102E3000800FF36E0550800FF35C02E10450695D72
:102E400003E3046A056A14D004016951FF08026EA5
:102E50003F0E6A55036E0550800FF36E0350800FCE
:102E6000F35C02E10250045C03E304683F0E056E6C
:102E700004016E51020DF450036EF3CF02F0750E93
:102E800002260A0E032202C0E9FF03C0EAFFEECFCA
:102E900002F0EFCF03F00250045C026E03500558BD
:102EA000036ED88003AED89004E3031E026CD8B43E
:102EB000032A012A04016A51800FF36E0350800F28
:102EC000F35C02E10250695DD8B0DED604016E51B8
:102ED000020DF450076EF3CF06F0750E06260A0EAB
:102EE000072206C0E9FF07C0EAFF04C0EEFF05C0E5
:102EF000EFFF04016BA55AD004016E51020DF4508E
:102F0000076EF3CF06F0D50E0624086E0A0E0720D2
:102F1000096E08C0E9FF09C0EAFFEECF0AF0EFCF63
:102F20000BF00A500B10D8B441D0550E06260A0EED
:102F3000072206C0E9FF07C0EAFFEECF06F0EFCF99
:102F400007F00650045C026E07500558036E02102D
:102F50001CE00350800F800F02E1010E025C066A44
:102F600006360B50800F800F02E1010E0A5C0A6AE0
:102F70000A3606500A1809E108C0E9FF09C0EAFF4D
:102F800002C0EEFF03C0EFFF7FD604016E51020DB9
:102F9000F450036EF3CF02F0D50E02260A0E032280
:102FA00002C0E9FF03C0EAFFEE6AEF6A04016BA307
:102FB00043D000500EE100C002F0002A036A6F0EF9
:102FC0000226040E032202C0E9FF03C0EAFF420EFC
:102FD000EF6E00C002F0002A036A6F0E0226040E94
:102FE0000322640E04016E25066E02C0E9FF03C0D1
:102FF000EAFF06C0EFFF00C002F0002A036A6F0E6E
:103000000226040E03220550066E02C0E9FF03C02B
:10301000EAFF06C0EFFF00C002F0002A036A6F0E4D
:103020000226040E03220450066E02C0E9FF03C00C
:10303000EAFF06C0EFFF28D66EC402F00550E56E29
:103040000450E56EE56A0250E56E000EE56E5F0E17
:10305000E56EC20EE56EFDEC36F0070EE12614D6E5
:1030600000501DE004016BA31AD000C002F0002A3A
:10307000036A6F0E0226040E032202C0E9FF03C09A
:10308000EAFF0A0EEF6E0050E56E800EE56E040E4C
:10309000E56E6F0EE56EF2EC2EF0040EE1260150A7
:1030A000E4CF0BF0E4CF0AF0E4CF09F0E4CF08F06E
:1030B000E4CF07F0E4CF06F0E4CF05F0E4CF04F06E
:1030C000E4CF03F0E4CF02F0E4CF01F0E4CF00F06E
:1030D0001200D9CFE5FFE1CFD9FF00C0E5FF01C065
:1030E000E5FF02C0E5FF03C0E5FF04C0E5FF05C042
:1030F000E5FF06C0E5FF07C0E5FF08C0E5FF09C022
:10310000E5FF0AC0E5FF0BC0E5FF020EDBCF00F0D4
:10311000030EDBCF01F0040EDBCF02F0050EDBCF98
:1031200003F0060EDBCF04F002500A6E0150096E68
:103130000050086EE56A110EE56E0A50E56E095002
:10314000E56E0850E56E800EE56E040EE56E240E09
:10315000E56E70EC2EF0080EE12633C405F034C4A1
:1031600006F0E86A040134BFFF0E076E0A01FC6F27
:103170000650FB6F0550FA6FF96B03C005F004C0F1
:1031800006F0E86A04BEFF0E076E086E24C409F05C
:10319000E56AE56AE56A0950E56E0850E56E075094
:1031A000E56E0650E56E0550E56EEEEC23F00A0183
:1031B000F56FF3CFF6FAF4CFF7FAE9CFF8FA080E85
:1031C000E12604012551D8B4AFD00450800F800F00
:1031D00002E1010E035C25E304012A51800F7C0FFC
:1031E00008E1000E295D05E1000E285D02E1000EF8
:1031F000275D17E204013251800FF36E0A01FC5182
:10320000800FF35C0DE1FB510401315D09E10A011E
:10321000FA510401305D04E10A01F95104012F5D06
:1032200033E3D88004AED890D8A043D004012A510B
:10323000800F840F08E1000E295D05E1000E285D76
:1032400002E1010E275D35E30A01FC1D0A6EFB1D3C
:10325000096EFA1D046EF91D036E032A04E1042AA7
:1032600002E1094A0A2A0A50800FF36E0401325122
:10327000800FF35C08E13151095C05E13051045CD9
:1032800002E12F51035C15E2055004012725036E6E
:1032900006502821046E07502921096E08502A2162
:1032A0000A6E0350276F0450286F0950296F0A5087
:1032B0002A6F040127390F0B036E2839046EF00BB7
:1032C000041A03262951E838F00B041229390F0B90
:1032D000096E2A390A6EF00B0A1A0926F00E0AB690
:1032E0000A2625C40BF0E56AE56AE56A0B50E56E2F
:1032F0000A50E56E0950E56E0450E56E0350E56E28
:10330000EEEC23F0036EF3CF04F0F4CF09F0E9CF35
:103310000AF0080EE12603500A01F5270450F623AF
:103320000950F7230A50F82304012651D8B46CD071
:103330002B51055C01014A6F04012C510658010113
:103340004B6F04012D51075801014C6F04012E51A0
:10335000085801014D6F800F800F08E1010E4C5D90
:1033600005E1000E4B5D02E1000E4A5D07E3FF0E32
:1033700001014A6F4B6F4C6B4D6B14D001014D51E5
:10338000800F810F08E1FF0E4C5D05E1000E4B5DE3
:1033900002E1000E4A5D06E201014A6B4B6BFF0E33
:1033A0004C6F4D6F01014D314C310A6E096A093283
:1033B0004B51E8407F0B09124B314A31046E036ACE
:1033C000033226C40BF0E56AE56AE56A0B50E56E48
:1033D0000A50E56E0950E56E0450E56E0350E56E47
:1033E000EEEC23F0036EF3CF04F0F4CF09F0E9CF55
:1033F0000AF0080EE12603500A01F5270450F623CF
:103400000950F7230A50F823055004012B6F06508A
:103410002C6F07502D6F08502E6F0A01FC51800F42
:10342000F36E0A01F851800FF35C0DE1F7510A01C8
:10343000FB5D09E10A01F6510A01FA5D04E10A01A6
:10344000F5510A01F95D11E20A01F95104012F6FEA
:103450000A01FA510401306F0A01FB510401316F76
:103460000A01FC510401326F3AD00A01FC1D066EBC
:10347000FB1D056EFA1D046EF91D036E032A04E19F
:10348000042A02E1054A062A0A01F851800FF36E68
:103490000650800FF35C08E10550F75D05E104502C
:1034A000F65D02E10350F55D0AE2035004012F6F5F
:1034B0000450306F0550316F0650326F10D00A0142
:1034C000F55104012F6F0A01F6510401306F0A0112
:1034D000F7510401316F0A01F8510401326FE56AB6
:1034E000110EE56E800EE56E040EE56E240EE56E9F
:1034F0000250E56E0150E56E0050E56E70EC2EF066
:10350000080EE126E4CF0BF0E4CF0AF0E4CF09F097
:10351000E4CF08F0E4CF07F0E4CF06F0E4CF05F005
:10352000E4CF04F0E4CF03F0E4CF02F0E4CF01F005
:10353000E4CF00F0E4CFD9FF1200D9CFE5FFE1CF0F
:10354000D9FF00C0E5FF01C0E5FF02C0E5FF03C0F1
:10355000E5FF04C0E5FF05C0E5FF06C0E5FF07C0C5
:10356000E5FF08C0E5FF09C0E5FF0AC0E5FF020E60
:10357000DBCF00F0030EDBCF01F0040EDBCF02F057
:10358000036A046A28EC3AF0056EFE0A01E077D07F
:10359000D0EC33F028EC3AF0066E030E065CD8A0AF
:1035A0005AD0060E065CD8B056D0FD0E0624076E23
:1035B000FA6AFB6A0734FA36E834FA36FC0BCE0FA7
:1035C000E56E350EFA22000EFB22E450F96EEDEFA7
:1035D0001AF0FFEF1AF018EF1BF00050090F076EFA
:1035E000000E0120086E000E022007C0E9FF08C08F
:1035F000F3FF8FEC3CF0036EF3CF04F02CD00050BF
:10360000090F076E000E0120086E000E0220096EE1
:10361000020E0726000E0822092207C0E9FF08C093
:10362000F3FF09508FEC3CF0036EF3CF04F013D09E
:103630000050070F076E000E0120086E000E0220DA
:1036400007C0E9FF08C0F3FF05EC3DF0010B076E72
:1036500007C003F0046A06C007F00450E56E03508B
:10366000E56EE56A0750E56E000EE56E190EE56E33
:10367000940EE56EFDEC36F0070EE12634D1070E10
:10368000055CD8B030D1FA6AFB6A0534FA36E83402
:10369000FA36FC0BA40FE56E360EFA22000EFB2262
:1036A000E450F96E60EF1BF07BEF1BF08DEF1BF029
:1036B0009FEF1BF0D1EF1BF007EF1CF026EF1CF083
:1036C0000050230F036E000E0120046E000E022036
:1036D000E56E0450E56E0350E56EE2EC1DF0030E5E
:1036E000E126020EE56E00C0E9FF01C0F3FF0250C3
:1036F00083EC3DF0F8D00050330F036E000E012034
:10370000046E000E0220E56E0450E56E0350E56E77
:103710006FEC20F0030EE126E6D00050440F036E5C
:10372000000E0120046E000E0220E56E0450E56ECE
:103730000350E56E6FEC20F0030EE126D4D000506C
:10374000090F036E000E0120046E000E0220056EAC
:1037500028EC3AF00A6E096AE56A0AC0F4FF03C071
:10376000E9FF04C0F3FF055060EC3DF028EC3AF0AF
:10377000086A092608500A2209C0E5FF0AC0F4FFBA
:1037800003C0E9FF04C0F3FF055060EC3DF0010EFB
:10379000E56E00C0E9FF01C0F3FF025083EC3DF08D
:1037A000A2D00050090F036E000E0120046E000E1F
:1037B0000220056E020E0326000E0422052228ECCC
:1037C0003AF00A6E096AE56A0AC0F4FF03C0E9FF2D
:1037D00004C0F3FF055060EC3DF028EC3AF0086AB5
:1037E000092608500A2209C0E5FF0AC0F4FF03C0F9
:1037F000E9FF04C0F3FF055060EC3DF0E56A00C04E
:10380000E9FF01C0F3FF025083EC3DF06CD00050A3
:10381000070F036E000E0120046E000E0220056EDD
:1038200028EC3AF0010BF46E03C0E9FF04C0F3FF8B
:10383000055005EC3DF0FE0BF410E56E03C0E9FF0A
:1038400004C0F3FF055083EC3DF04DD028EC3AF076
:10385000066E0050160F036E000E0120046E000E5F
:103860000220056E03500C0F076E000E0420086E38
:10387000000E0520096E0650010BF46E07C0E9FF2B
:1038800008C0F3FF095005EC3DF0FE0BF410E56EA7
:1038900007C0E9FF08C0F3FF095083EC3DF0065074
:1038A000010A21E1080E0326000E04220522E56A22
:1038B000F46AF66AF76A03C0E9FF04C0F3FF055033
:1038C00016EC3DF0230E0026000E01220222E56ACE
:1038D000E56A0250E56E0150E56E0050E56E45EC7C
:1038E0002CF0050EE126E4CF0AF0E4CF09F0E4CF96
:1038F00008F0E4CF07F0E4CF06F0E4CF05F0E4CF22
:1039000004F0E4CF03F0E4CF02F0E4CF01F0E4CF21
:1039100000F0E4CFD9FF120000C0E5FF01C0E5FFD1
:1039200002C0E5FF03C0E5FF04C0E5FF05C0E5FFF9
:1039300006C0E5FF07C0E5FF08C0E5FF09C0E5FFD9
:103940000AC0E5FF0BC0E5FF0CC0E5FF0DC0E5FFB9
:103950000EC0E5FF000E00B0010F00B2020F00B470
:10396000040F00B6080F00B8060F00BA020F00BC23
:10397000040F00BE080F01B0060F01B2020F01B420
:10398000040F01B6080F01B8060F01BA020F01BCFF
:10399000040F01BE080F02B0060F02B2020F02B4FC
:1039A000040F02B6080F02B8060F02BA020F02BCDB
:1039B000040F02BE080F056AF60F02E3052AFCD7C2
:1039C0000A0F046E055000B8010F00BA030F00BCC7
:1039D000060F00BE020F01B0050F01B2010F01B4C6
:1039E000020F01B6040F01B8090F01BA090F01BC9B
:1039F000080F01BE060F02B0030F02B2070F02B498
:103A0000040F02B6080F02B8070F02BA050F066AC4
:103A1000F60F02E3062AFCD70A0F056E065000BE19
:103A2000010F01B0020F01B2050F01BA010F01BC75
:103A3000030F01BE070F02B0050F02B4010F02B65B
:103A4000020F02B8050F02BA010F02BC030F02BE3B
:103A5000060F076AF60F02E3072AFCD70A0F066E65
:103A6000075001B4010F01B6020F01B8040F01BAEB
:103A7000080F01BC060F01BE020F02B0050F02B213
:103A8000010F02B4020F02B6040F02B8080F02BA07
:103A9000070F02BC040F02BE080F086AF60F02E30C
:103AA000082AFCD70A0F076E085001BC010F01BE9F
:103AB000030F02B0060F02B2030F02B4060F02B6E4
:103AC000020F02B8040F02BA090F02BC090F02BEAE
:103AD000080F096AF60F02E3092AFCD70A0F086EDD
:103AE000095002B2010F02B4020F02B6050F02BC68
:103AF000010F02BE030F0A6AF60F02E30A2AFCD77F
:103B00000A0F096E0A5002B8010F02BA020F02BC76
:103B1000040F02BE080F0B6AF60F02E30B2AFCD754
:103B20000A0F0A6E0B500E6A0EE10A5010E109509E
:103B300012E1085014E1075016E1065018E1055053
:103B40001AE104501CD00E2A300FEE6E0A500E2AD5
:103B5000300FEE6E09500E2A300FEE6E08500E2A0E
:103B6000300FEE6E07500E2A300FEE6E06500E2A02
:103B7000300FEE6E05500E2A300FEE6E04500E2AF6
:103B8000300FEE6E0E50E4CF0EF0E4CF0DF0E4CF28
:103B90000CF0E4CF0BF0E4CF0AF0E4CF09F0E4CF6F
:103BA00008F0E4CF07F0E4CF06F0E4CF05F0E4CF6F
:103BB00004F0E4CF03F0E4CF02F0E4CF01F0E4CF6F
:103BC00000F01200D9CFE5FFE1CFD9FF00C0E5FF3B
:103BD00001C0E5FF02C0E5FF03C0E5FF04C0E5FF4B
:103BE00005C0E5FF06C0E5FF07C0E5FF08C0E5FF2B
:103BF00009C0E5FF0AC0E5FF0BC0E5FF020EDBCF01
:103C000000F0030EDBCF01F0040EDBCF02F0036AFD
:103C1000046A28EC3AF0056EFE0A01E063D0D0ECAD
:103C200033F028EC3AF0066E06500AE00650010A1E
:103C300019E00650020A28E006500A0A37E040D090
:103C40000050060F076E000E0120086E000E0220C5
:103C500007C0E9FF08C0F3FF8FEC3CF0036EF3CF21
:103C600004F02ED000500C0F076E000E0120086EDD
:103C7000000E022007C0E9FF08C0F3FF8FEC3CF004
:103C8000036EF3CF04F01CD000500E0F076E000E31
:103C90000120086E000E022007C0E9FF08C0F3FFF4
:103CA0008FEC3CF0036EF3CF04F00AD000C0E9FFC4
:103CB00001C0F3FF02508FEC3CF0036EF3CF04F031
:103CC0000450E56E0350E56EE56A0650E56E000EA1
:103CD000E56E680EE56EE60EE56EFDEC36F0070E5D
:103CE000E126A1D005500CE00550010A32E0055054
:103CF000020A01E157D005500A0A01E17CD093D0B5
:103D00000050060F056E000E0120066E000E022008
:103D1000076E28EC3AF00B6E0A6AE56A0BC0F4FFF6
:103D200005C0E9FF06C0F3FF075060EC3DF028EC4A
:103D30003AF0096A0A2609500B220AC0E5FF0BC0B7
:103D4000F4FF05C0E9FF06C0F3FF075060EC3DF04B
:103D50006AD000500C0F056E000E0120066E000E9A
:103D60000220076E28EC3AF00B6E0A6AE56A0BC077
:103D7000F4FF05C0E9FF06C0F3FF075060EC3DF01B
:103D800028EC3AF0096A0A2609500B220AC0E5FF1E
:103D90000BC0F4FF05C0E9FF06C0F3FF075060EC5D
:103DA0003DF041D000500E0F056E000E0120066E52
:103DB000000E0220076E28EC3AF00B6E0A6AE56AE4
:103DC0000BC0F4FF05C0E9FF06C0F3FF075060EC2D
:103DD0003DF028EC3AF0096A0A2609500B220AC085
:103DE000E5FF0BC0F4FF05C0E9FF06C0F3FF075075
:103DF00060EC3DF018D028EC3AF0046E036A28EC31
:103E00003AF0066A0326065004220450E56E035079
:103E1000E56E0250E56E0150E56E0050E56EA4ECD3
:103E200038F0050EE126E4CF0BF0E4CF0AF0E4CF42
:103E300009F0E4CF08F0E4CF07F0E4CF06F0E4CFD8
:103E400005F0E4CF04F0E4CF03F0E4CF02F0E4CFD8
:103E500001F0E4CF00F0E4CFD9FF1200800EE56E50
:103E60000A0EE56EB50EE56EC6EC34F0030EE126E3
:103E7000800EE56E0A0EE56E950EE56EC6EC34F02A
:103E8000030EE126800EE56E0A0EE56EB70EE56EB6
:103E9000C6EC34F0030EE126800EE56E0A0EE56EE8
:103EA000970EE56EC6EC34F0030EE126800EE56E4B
:103EB0000A0EE56EB90EE56EC6EC34F0030EE1268F
:103EC000800EE56E0A0EE56E990EE56EC6EC34F0D6
:103ED000030EE126800EE56E0A0EE56EBB0EE56E62
:103EE000C6EC34F0030EE126800EE56E0A0EE56E98
:103EF0009B0EE56EC6EC34F0030EE126800EE56EF7
:103F00000A0EE56EBD0EE56EC6EC34F0030EE1263A
:103F1000800EE56E0A0EE56E9D0EE56EC6EC34F081
:103F2000030EE126800EE56E0A0EE56EBF0EE56E0D
:103F3000C6EC34F0030EE126800EE56E0A0EE56E47
:103F40009F0EE56EC6EC34F0030EE126800EE56EA2
:103F50000A0EE56EC10EE56EC6EC34F0030EE126E6
:103F6000800EE56E0A0EE56EA10EE56EC6EC34F02D
:103F7000030EE126800EE56E0A0EE56EC30EE56EB9
:103F8000C6EC34F0030EE126800EE56E0A0EE56EF7
:103F9000A30EE56EC6EC34F0030EE126800EE56E4E
:103FA0000A0EE56EC50EE56EC6EC34F0030EE12692
:103FB000800EE56E0A0EE56EA50EE56EC6EC34F0D9
:103FC000030EE126800EE56E0A0EE56EC70EE56E65
:103FD000C6EC34F0030EE126800EE56E0A0EE56EA7
:103FE000A70EE56EC6EC34F0030EE126800EE56EFA
:103FF0000A0EE56EC90EE56EC6EC34F0030EE1263E
:10400000800EE56E0A0EE56EA90EE56EC6EC34F084
:10401000030EE126800EE56E0A0EE56ECB0EE56E10
:10402000C6EC34F0030EE126800EE56E0A0EE56E56
:10403000AB0EE56EC6EC34F0030EE126800EE56EA5
:104040000A0EE56ECD0EE56EC6EC34F0030EE126E9
:10405000800EE56E0A0EE56EAD0EE56EC6EC34F030
:10406000030EE126800EE56E0A0EE56ECF0EE56EBC
:10407000C6EC34F0030EE126800EE56E0A0EE56E06
:10408000AF0EE56EC6EC34F0030EE126800EE56E51
:104090000A0EE56ED10EE56EC6EC34F0030EE12695
:1040A000800EE56E0A0EE56EB10EE56EC6EC34F0DC
:1040B000030EE126800EE56E0A0EE56ED30EE56E68
:1040C000C6EC34F0030EE126800EE56E0A0EE56EB6
:1040D000B30EE56EC6EC34F0030EE1261200D9CF24
:1040E000E5FFE1CFD9FF00C0E5FF01C0E5FF02C059
:1040F000E5FF03C0E5FF04C0E5FF05C0E5FF06C01E
:10410000E5FF07C0E5FF08C0E5FF020EDBCF00F0CA
:10411000030EDBCF01F0040EDBCF02F0036A046A6A
:1041200028EC3AF0056EFE0A01E075D0D0EC33F0D1
:1041300028EC3AF0066E040E065CD8B05AD0FA6A43
:10414000FB6A0634FA36E834FA36FC0B5C0FE56E8F
:10415000410EFA22000EFB22E450F96EB6EF20F079
:10416000C2EF20F0D5EF20F0E8EF20F000C0E9FF2B
:1041700001C0F3FF025005EC3DF0076E07C003F0ED
:10418000046A37D00050010F076E000E0120086E40
:10419000000E022007C0E9FF08C0F3FF05EC3DF068
:1041A000076E07C003F0046A24D00050020F076EA8
:1041B000000E0120086E000E022007C0E9FF08C0B3
:1041C000F3FF05EC3DF0076E07C003F0046A11D061
:1041D00000500F0F076E000E0120086E000E022027
:1041E00007C0E9FF08C0F3FF8FEC3CF0036EF3CF8C
:1041F00004F00450E56E0350E56EE56A0650E56E86
:10420000000EE56E550EE56E280EE56EFDEC36F0FF
:10421000070EE1268DD0040E055CD8B089D0FA6A6D
:10422000FB6A0534FA36E834FA36FC0B3C0FE56ECF
:10423000420EFA22000EFB22E450F96E26EF21F026
:1042400033EF21F05EEF21F074EF21F028EC3AF02B
:10425000036E03C0E5FF00C0E9FF01C0F3FF025099
:1042600083EC3DF065D00050010F036E000E01207D
:10427000046E000E0220056E28EC3AF0066E06C0B1
:10428000E5FF03C0E9FF04C0F3FF055083EC3DF0F8
:104290000650D8A44DD00050030F036E000E01202D
:1042A000046E000E0220E56AF46AF66AF76A03C03B
:1042B000E9FF04C0F3FF16EC3DF03AD00050020FC6
:1042C000036E000E0120046E000E0220056E28EC25
:1042D0003AF0066E06C0E5FF03C0E9FF04C0F3FF35
:1042E000055083EC3DF024D00F0E0026000E012275
:1042F000022228EC3AF0066E056AE56A06C0F4FF71
:1043000000C0E9FF01C0F3FF025060EC3DF028EC73
:104310003AF0046A05260450062205C0E5FF06C0EF
:10432000F4FF00C0E9FF01C0F3FF025060EC3DF074
:10433000E4CF08F0E4CF07F0E4CF06F0E4CF05F0D7
:10434000E4CF04F0E4CF03F0E4CF02F0E4CF01F0D7
:10435000E4CF00F0E4CFD9FF120000C0E5FF01C0B8
:10436000E5FF02C0E5FF03C0E5FF04C0E5FF05C0AF
:10437000E5FF06C0E5FF07C0E5FF08C0E5FF09C08F
:10438000E5FFC2B204D104016D51D8B4AFD004012D
:104390006C51020DF450016EF3CF00F0E00E0026D8
:1043A000000E012200C0E9FF01C0EAFFEECF02F0DB
:1043B000EFCF03F002380F0B046E0338056EF00BDD
:1043C000051A042605320432F80E05B405260450F9
:1043D000025C046E05500358056EC3CF06F0076AF1
:1043E0000650042607500522C4CF06F00650096E79
:1043F000086A085004260950052200C0E9FF01C0E0
:10440000EAFF04C0EEFF05C0EFFF04016851010A96
:1044100001E06AD004016C51020DF450016EF3CF3B
:1044200000F0E00E0024046E000E0120056E04C0B2
:10443000E9FF05C0EAFFEECF02F0EFCF03F0950EE3
:1044400000260A0E012200C0E9FF01C0EAFFEECFFC
:1044500004F0EFCF05F09C0E0426D8A0050603500B
:10446000800FF36E0550800FF35C02E10450025C94
:104470000EE20250640F046E000E0320056E00C0B1
:10448000E9FF01C0EAFF04C0EEFF05C0EFFF040131
:104490006C51020DF450016EF3CF00F0B50E002602
:1044A0000A0E012200C0E9FF01C0EAFFEECF04F0CE
:1044B000EFCF05F0640E0426D8B0052A0550800F12
:1044C000F36E0350800FF35C02E10250045C0CE2D7
:1044D0009C0E0226D8A0030600C0E9FF01C0EAFF37
:1044E00002C0EEFF03C0EFFF04016D6B04016C2BF3
:1044F000100E6C5D01E36C6B04016C39E8441F0B1A
:10450000006E016A850E0026010E012200C0E9FF3F
:1045100001C0EAFFEFCF00F0070E6C15016E010E2F
:10452000026E000E036E015006E0E86CD890023671
:104530000336010FFCE3046A005002160450031610
:10454000025005E1035003E1026A022A01D0026A27
:104550000250D880E866D890026A0236025017E00E
:10456000E80E04016C25006E016A040E012200C0F1
:10457000E9FF01C0EAFFEFCF00F00044E844FC0B84
:10458000016E0128C26EC282010E04016D6FE4CF7C
:1045900009F0E4CF08F0E4CF07F0E4CF06F0E4CF71
:1045A00005F0E4CF04F0E4CF03F0E4CF02F0E4CF71
:1045B00001F0E4CF00F01200D9CFE5FFE1CFD9FF41
:1045C00000C0E5FF01C0E5FF02C0E5FF03C0E5FF55
:1045D00004C0E5FF05C0E5FF06C0E5FF07C0E5FF35
:1045E00008C0E5FF09C0E5FF0AC0E5FF0BC0E5FF15
:1045F000020EDBCF00F0030EDBCF01F0040EDBCFA9
:1046000002F0050EDBCF03F0060EDBCF04F0070E41
:10461000DBCF05F0080EDBCF06F0090EDBCF07F08D
:1046200006C008F0060608500EE006500424086E86
:10463000E86A06BEE8680520096E08C0E9FF09C0FF
:10464000EAFFEF6AEDD700500101766F0150776FF6
:104650000250786F0350796F76C100F077C101F096
:1046600078C102F079C103F0066A086A096A800E0F
:1046700003140A6E065007E1085005E1095003E1F2
:104680000A50800A01E012D0039E00500101766FAB
:104690000150776F0250786F0350796F04C0E9FFC3
:1046A00005C0EAFF2D0EEF6E044A052A0101783598
:1046B00079357E08006E7651016E7751026E7F0E5D
:1046C0007815036E066A038E086A096A0A6A0B6A1D
:1046D000005019E0D88000AED8900EE308500826AC
:1046E00009360A360B3603BE088001500126023611
:1046F00003360636002AECD7D8900632033202324F
:1047000001320006E5D7085009100A100B1012E01C
:104710000550E56E0450E56E0B50E56E0A50E56EEF
:104720000950E56E0850E56ED3EC39F0006E060EC8
:10473000E12608D004C0E9FF05C0EAFF300EEF6EA5
:10474000010E006E00500426E86A00BEE8680522EB
:10475000075028E004C0E9FF05C0EAFF2E0EEF6E07
:10476000002A044A052A07501808E56E0550E56E30
:104770000450E56E0650E56E0350E56E0250E56E9E
:104780000150E56E40EC39F0016E070EE126015054
:10479000002607500426E86A052204C0E9FF05C088
:1047A000EAFFEF6A0050E4CF0BF0E4CF0AF0E4CF69
:1047B00009F0E4CF08F0E4CF07F0E4CF06F0E4CF4F
:1047C00005F0E4CF04F0E4CF03F0E4CF02F0E4CF4F
:1047D00001F0E4CF00F0E4CFD9FF1200D9CFE5FF1C
:1047E000E1CFD9FF00C0E5FF01C0E5FF02C0E5FF52
:1047F00003C0E5FF04C0E5FF05C0E5FF06C0E5FF17
:1048000007C0E5FF020EDBCF00F0030EDBCF01F0A7
:10481000040EDBCF02F0050EDBCF03F0060EDBCF7C
:1048200004F0070EDBCF05F0080EDBCF06F0090E13
:10483000DBCF07F000500101626F0150636F02503F
:10484000646F0350656F04500101666F0550676F18
:104850000650686F0750696F0101625101016803DA
:10486000F4CF01F0F3CF00F0005001016C6F015064
:104870006D6F0101625101016603F4CF01F0F3CFC6
:1048800000F0005001016A6F01506B6F010165512A
:1048900001016603F3CF00F001016D5100260050C5
:1048A0006D6F0101645101016703F3CF00F0010155
:1048B0006D51002600506D6F0101645101016603C6
:1048C000F4CF01F0F3CF00F001016C5100266D51DF
:1048D000012200506C6F01506D6F010163510101A5
:1048E0006703F4CF01F0F3CF00F001016C51002613
:1048F0006D51012200506C6F01506D6F01016351C9
:1049000001016803F3CF00F000500101716F010154
:10491000635101016603F4CF01F0F3CF00F00050C2
:1049200001016F6F0150706F010162510101690354
:10493000F3CF00F000500101756F010162510101D8
:104940006703F4CF01F0F3CF00F000500101736F63
:104950000150746F01016E6B0101726B01016E51A8
:1049600001016A25006E01016F5101016B21016E89
:104970000101705101016C21026E010171510101AF
:104980006D21036E00506A6F01506B6F02506C6FA7
:1049900003506D6F0101725101016A25006E010122
:1049A000735101016B21016E0101745101016C21F0
:1049B000026E0101755101016D21036E03C0E9FF13
:1049C00002C0F4FF01C0F3FF0050E4CF07F0E4CFD2
:1049D00006F0E4CF05F0E4CF04F0E4CF03F0E4CF39
:1049E00002F0E4CF01F0E4CF00F0E4CFD9FF1200F1
:1049F00000C0E5FF01C0E5FF04016551D8B4F5D062
:104A0000A3A81DD0A4A81BD00101965101019319A0
:104A100005E144EC3DF00101936BE7D0000E01018C
:104A20009625006E016A0F0E012200C0E9FF01C049
:104A3000EAFFEFCF8FF1962B8FC173FFD6D0A4AAD8
:104A4000D4D071A205D00101948144EC3DF0CDD0C9
:104A500071A405D00101948344EC3DF0C6D071A04F
:104A60003ED074CF8FF1800E0401661101018F19C1
:104A700004E1010194897196B8D001018F5104E0DD
:104A80008F510401661927E1010194997196010182
:104A90008F5103E00101949702D0010194878FC1E7
:104AA00098F191C199F10101910501019A6F600E90
:104AB00001019925006E016A000E012200C0E9FF84
:104AC00001C0EAFF8FC1EFFF992B9951800A02E1E3
:104AD0000101996B8AD001019499718686D074CFB7
:104AE0008FF1010194A919D0800E04016611010112
:104AF0008F1911E1899AA39A71980101935104E1E8
:104B0000736A44EC3DF007D000CF73FF010E010142
:104B1000966FA3886AD0718668D001018F51010118
:104B200098270101995101019A191BE1010198513E
:104B30000CE199C191F1010194B712D0899AA39A1D
:104B40007198736A44EC3DF00BD00101948594B7E1
:104B500007D0899AA39A7198010E736E44EC3DF0C8
:104B600044D0010199510101921908E101019251CA
:104B70000101911903E044EC3DF037D091C100F000
:104B8000016A004A012AE56A800EE56E0150E56E71
:104B90000050E56E5EEC30F0006E040EE126005031
:104BA0000101906F010199190CE11F0E01018F1590
:104BB00001019A6F9A2B9A2B0101915101019A27B9
:104BC0009A9F99C100F00101992B016A600E00269D
:104BD000000E012200C0E9FF01C0EAFF8FC1EFFF14
:104BE0009951800A02E10101996BE4CF01F0E4CF11
:104BF00000F0120000C0E5FF01C0E5FF02C0E5FFC4
:104C000003C0E5FF04C0E5FF05C0E5FF06C0E5FF02
:104C100007C0E5FF08C0E5FF09C0E5FF0AC0E5FFE2
:104C2000006A016A040E015CD8B0B9D0200E0401FC
:104C30007C25026E036A010E032202C0E9FF03C055
:104C4000EAFFEFCF02F00250FF0A01E1A1D0040118
:104C50007C39E8441F0B026E890E0224036E046A3D
:104C6000010E042203C0E9FF04C0EAFFEFCF03F006
:104C7000070E7C15046E010E056E000E066E0450C4
:104C800006E0E86CD89005360636010FFCE3076AAB
:104C90000550031606500716035005E1075003E1BF
:104CA000036A032A01D0036A0350D880E866D890CB
:104CB000036A0336076A870E0226010E072202C026
:104CC000E9FF07C0EAFFEFCF08F008C009F00A6A61
:104CD000095005160A500616055005E1065003E175
:104CE000056A052A01D0056A0550D880E866D89083
:104CF000056A05360350051801E14AD0035012E059
:104D0000010E056E045005E0E86CD8900536010FE1
:104D1000FDE30550081202C0E9FF07C0EAFF08C022
:104D2000EFFF17D002C0E9FF07C0EAFFEFCF05F0A1
:104D3000010E066E045005E0E86CD8900636010FAF
:104D4000FDE3061C051602C0E9FF07C0EAFF05C027
:104D5000EFFF035003E1036A032A01D0036A026AEA
:104D600003BE02687CC404F00250E56E0350E56E99
:104D7000E56A0450E56E000EE56E6B0EE56EDC0E26
:104D8000E56EFDEC36F0070EE126012A01C000F0C9
:104D900004017C2B100E7C5DD8A044D77C6B0050A6
:104DA000E4CF0AF0E4CF09F0E4CF08F0E4CF07F055
:104DB000E4CF06F0E4CF05F0E4CF04F0E4CF03F055
:104DC000E4CF02F0E4CF01F0E4CF00F01200D9CF3D
:104DD000E5FFE1CFD9FF00C0E5FF01C0E5FF02C05C
:104DE000E5FF03C0E5FF04C0E5FF05C0E5FF06C021
:104DF000E5FF07C0E5FF08C0E5FF09C0E5FF0AC001
:104E0000E5FF0BC0E5FF0CC0E5FF0DC0E5FF0EC0E0
:104E1000E5FF0FC0E5FF020EDBCF00F0030EDBCF96
:104E200001F0040EDBCF02F0050EDBCF03F0060E1F
:104E3000DBCF04F0070EDBCF05F0080EDBCF06F06A
:104E4000200E076E086A06C009F00A6A0B6A0C6A2F
:104E5000E56AE56AE56A0950E56E0350E56E0250C1
:104E6000E56E0150E56E0050E56E98EC2AF00D6E8F
:104E7000080EE126300E0D263A0E0D5C05E30D50AE
:104E80000E6E270E0E240D6EFF0E07260822000E52
:104E900007240E6E010E08200F6E0EC0E9FF0FC032
:104EA000EAFF0DC0EFFF0C50E56E0B50E56E0A50A7
:104EB000E56E0950E56E0350E56E0250E56E015057
:104EC000E56E0050E56ED2EC2CF0006EF3CF01F0F1
:104ED000F4CF02F0E9CF03F0080EE12600500110F4
:104EE00002100310D8A4AFD707C000F008C001F02B
:104EF00004C002F005C003F000C004F001C005F0DA
:104F0000004A012A000E0426010E052204C0E9FF12
:104F100005C0EAFFEFCF04F002C0E9FF03C0EAFFDB
:104F200004C0EFFF024A032A000E015C02E1200EDA
:104F3000005CE2E302C0E9FF03C0EAFF000EEF6A93
:104F4000E4CF0FF0E4CF0EF0E4CF0DF0E4CF0CF09F
:104F5000E4CF0BF0E4CF0AF0E4CF09F0E4CF08F09F
:104F6000E4CF07F0E4CF06F0E4CF05F0E4CF04F09F
:104F7000E4CF03F0E4CF02F0E4CF01F0E4CF00F09F
:104F8000E4CFD9FF1200D9CFE5FFE1CFD9FF00C0B0
:104F9000E5FF01C0E5FF02C0E5FF03C0E5FF04C077
:104FA000E5FF05C0E5FF06C0E5FF07C0E5FF08C057
:104FB000E5FF09C0E5FF0AC0E5FF0BC0E5FF0CC037
:104FC000E5FF0DC0E5FF020EDBCF00F0030EDBCFE7
:104FD00001F0040EDBCF02F0050EDBCF03F0060E6E
:104FE000DBCF04F0070EDBCF05F0080EDBCF06F0B9
:104FF000090EDBCF07F0D88003AED890086A0836D8
:1050000008500FE0031C0C6E021C0B6E011C0A6E94
:10501000001C096E092A0DE10A2A0BE10B4A0C2A31
:1050200008D000C009F001C00AF002C00BF003C0B4
:105030000CF0D88007AED890006A003600500FE020
:10504000071C0D6E061C036E051C026E041C016E0F
:10505000012A0DE1022A0BE1034A0D2A08D004C0FF
:1050600001F005C002F006C003F007C00DF00D50BE
:10507000E56E0350E56E0250E56E0150E56E0C5092
:10508000E56E0B50E56E0A50E56E0950E56ED2EC08
:105090002CF0016EF3CF02F0F4CF03F0E9CF04F06F
:1050A000080EE1260050081A085016E0041C076E8E
:1050B000031C066E021C056E011C006E002A04E132
:1050C000052A02E1064A072A07C0E9FF06C0F4FFE5
:1050D00005C0F3FF005007D004C0E9FF03C0F4FF90
:1050E00002C0F3FF0150E4CF0DF0E4CF0CF0E4CFA9
:1050F0000BF0E4CF0AF0E4CF09F0E4CF08F0E4CFFE
:1051000007F0E4CF06F0E4CF05F0E4CF04F0E4CFFD
:1051100003F0E4CF02F0E4CF01F0E4CF00F0E4CFFD
:10512000D9FF120000C0E5FF01C0E5FF02C0E5FFA6
:1051300003C0E5FF9EA0ADD0006A81B4002A0050F4
:10514000010BF46E04019B51FE0BF4109B6F0401E4
:1051500080B308D00401B16BB26BB36BB46BB58193
:10516000B58502D00401B595006A04019BB1002AFF
:10517000016A9BB5012A0050011801E186D0006A3E
:1051800004019BB1002A0050010BE844E844F46E8E
:105190009B51FB0BF4109B6FA951AD5D006EAA51A2
:1051A000AE59016EAB51AF59026EAC51B059036E9E
:1051B0000050AD6F0150AE6F0250AF6F0350B06F33
:1051C0000401F8510401A96F0401F9510401AA6F07
:1051D0000401FA510401AB6F0401FB510401AC6FEF
:1051E000AD51006EAE51016EAF51026EB051036E03
:1051F0000401F8510026F9510122FA510222FB5113
:10520000032200500401AD6F0150AE6F0250AF6F2A
:105210000350B06F006A81B2002A0050010BE844CD
:10522000F46E9B51FD0BF4109B6FB5A318D0B1C465
:1052300000F0B2C401F0B3C402F0B4C403F0002A19
:1052400004E3012A02E3024A032A00500401B16F79
:105250000150B26F0250B36F0350B46F16D0B1C497
:1052600000F0B2C401F0B3C402F0B4C403F0FF0E06
:10527000002601220222032200500401B16F0150D6
:10528000B26F0250B36F0350B46FCF68EB0ECE6EA7
:105290009E90E4CF03F0E4CF02F0E4CF01F0E4CF3E
:1052A00000F0120043204D20256C6420256C642002
:1052B00025640A0043002563000000C0E5FF01C02B
:1052C000E5FF02C0E5FF03C0E5FF04C0E5FF05C040
:1052D000E5FF006A200E0024016E026A010E022220
:1052E00001C0E9FF02C0EAFFEFCF01F00150FF0A61
:1052F00001E178D001380F0B026E036A800E02269E
:105300000F0E032202C0E9FF03C0EAFFEFCF02F055
:10531000070E0116010E036E000E046E015006E02A
:10532000E86CD89003360436010FFCE3056A02509E
:10533000031605500416035005E1045003E1036A07
:10534000032A01D0036A0350D880E866D890036A24
:105350000336035024E00038E8441F0B016E026A54
:10536000890E0126010E022201C0E9FF02C0EAFFF8
:10537000EFCF03F0070E0014046E010E056E04500B
:1053800005E0E86CD8900536010FFDE305500312E7
:1053900001C0E9FF02C0EAFF03C0EFFF23D00038DD
:1053A000E8441F0B016E026A890E0126010E0222DB
:1053B00001C0E9FF02C0EAFFEFCF03F0070E0014BF
:1053C000046E010E056E045005E0E86CD8900536B9
:1053D000010FFDE3051C031601C0E9FF02C0EAFF4F
:1053E00003C0EFFF002A100E005CD8A073D7E4CFF3
:1053F00005F0E4CF04F0E4CF03F0E4CF02F0E4CF13
:1054000001F0E4CF00F01200D9CFE5FFE1CFD9FFE2
:1054100000C0E5FF01C0E5FF02C0E5FF03C0E5FFF6
:1054200004C0E5FF05C0E5FF06C0E5FF07C0E5FFD6
:10543000020EDBCF00F0030EDBCF01F0040EDBCF5A
:1054400002F000500B0F036E000E0120046E000EE0
:105450000220E56AF46AF66AF76A03C0E9FF04C04D
:10546000F3FF16EC3DF00050070F036E000E012015
:10547000046E000E0220056E0050030F066E000E33
:105480000120076E000E0220E56AF46AF66AF76AE8
:1054900006C0E9FF07C0F3FF16EC3DF0E56AF46AC9
:1054A000F66AF76A03C0E9FF04C0F3FF055016EC83
:1054B0003DF00050010F036E000E0120046E000E3F
:1054C0000220056E0050020F066E000E0120076ECE
:1054D000000E0220E56A06C0E9FF07C0F3FF83EC77
:1054E0003DF0E56A03C0E9FF04C0F3FF055083EC1B
:1054F0003DF0E56A00C0E9FF01C0F3FF025083EC14
:105500003DF0E4CF07F0E4CF06F0E4CF05F0E4CFC0
:1055100004F0E4CF03F0E4CF02F0E4CF01F0E4CFF5
:1055200000F0E4CFD9FF120025642025640A0000B2
:10553000D9CFE5FFE1CFD9FF00C0E5FF01C0E5FF0E
:1055400002C0E5FF03C0E5FF04C0E5FF05C0E5FFBD
:1055500006C0E5FF07C0E5FF08C0E5FF09C0E5FF9D
:105560000AC0E5FF020EDBCF00F0030EDBCF01F037
:10557000040EDBCF02F0050EDBCF03F0060EDBCF0F
:1055800004F0070EDBCF05F0080EDBCF06F0090EA6
:10559000DBCF07F0086A096A0750800BE8440A6EFF
:1055A0000A501BE10450042605360636073607501C
:1055B000035C08E10650025C05E10550015C02E174
:1055C0000450005C06E2D8900732063205320432FD
:1055D00004D0092A09C008F0DFD70750035C08E1AE
:1055E0000650025C05E10550015C02E10450005CDC
:1055F00008E30450005E0550015A0650025A075055
:10560000035AD890073206320532043208C009F036
:1056100008060950E2E103C0E9FF02C0F4FF01C03F
:10562000F3FF0050E4CF0AF0E4CF09F0E4CF08F034
:10563000E4CF07F0E4CF06F0E4CF05F0E4CF04F0C8
:10564000E4CF03F0E4CF02F0E4CF01F0E4CF00F0C8
:10565000E4CFD9FF120000C0E5FF01C0E5FF03C0A1
:10566000E5FF04C0E5FF05C0E5FF06C0E5FF07C094
:10567000E5FF08C0E5FF09C0E5FF0AC0E5FF0BC074
:10568000E5FF7EC400F07FC401F004017E3F01D03D
:105690007F2B0050E56E36EC3DF0E652076E046A53
:1056A000056A066A7EC400F07FC401F004017E3FF3
:1056B00001D07F2B0050E56E36EC3DF0E6520B6AD0
:1056C0000A6E086A0850041205120A5006120B509E
:1056D00007127EC400F07FC401F004017E3F01D0B8
:1056E0007F2B0050E56E36EC3DF0E652036E006A0B
:1056F00003C001F0E86A03BEFF0E086E096E005099
:1057000004120150051208500612095007127EC4F7
:1057100000F07FC401F004017E3F01D07F2B0050D8
:10572000E56E36EC3DF0E652016A041201500512B6
:105730000612071207C0E9FF06C0F4FF05C0F3FF19
:105740000450E4CF0BF0E4CF0AF0E4CF09F0E4CF4B
:1057500008F0E4CF07F0E4CF06F0E4CF05F0E4CFA3
:1057600004F0E4CF03F0E4CF01F0E4CF00F0120046
:1057700000C0E5FF01C0E5FF02C0E5FF03C0E5FF93
:1057800004C0E5FF010192510101911901E15FD0CF
:1057900092C100F0002A009E600E0024016E026A91
:1057A000000E022201C0E9FF02C0EAFFEFCF9CF128
:1057B0001F0E01019C1792C19BF19C5101019B2777
:1057C0009B2B9B2B9B9F28EC3AF0016E015003E131
:1057D000016A012A01D0016A28EC3AF001019C6FAC
:1057E000800E9C15026E1F0E9C15036E03C004F004
:1057F00003C09CF1045003E191C192F13BD00150F0
:105800001BE0025022E028EC3AF0006E01019C07F8
:105810000050420A1AE000504E0A03E17BEC36F0D9
:1058200014D00050460A03E178EC3DF00ED0005051
:10583000490A0BE1FF0009D092C19DF1025003E03B
:1058400038EC36F002D00DEC39F09BC192F1040136
:1058500062510401631906E00101935103E15EEC1A
:105860002DF008D089BA06D00101935103E172B23C
:1058700044EC3DF0E4CF04F0E4CF03F0E4CF02F0D9
:10588000E4CF01F0E4CF00F01200D9CFE5FFE1CF83
:10589000D9FF00C0E5FF01C0E5FF02C0E5FF03C07E
:1058A000E5FF04C0E5FF05C0E5FF06C0E5FF07C052
:1058B000E5FF08C0E5FF0BC0E5FF0CC0E5FF0DC02C
:1058C000E5FF020EDBCF00F0030EDBCF01F0040E8C
:1058D000DBCF02F0050EDBCF03F0060EDBCF04F0CA
:1058E00003C0E5FF04C0F4FF00C0E9FF01C0F3FFFF
:1058F000025060EC3DF00050020F056E000E0120DA
:10590000066E000E0220076EE86A04BEFF0E086EE7
:1059100004500C6E0C2608340D6ED8900C360D36E3
:105920000344E844FC0B0B6E0350E844E844030BCB
:105930000C12E56A0BC0F4FF0CC0F6FF0DC0F7FFB8
:1059400005C0E9FF06C0F3FF075016EC3DF0080E56
:105950000026000E01220222E56AF46AF66AF76A5E
:1059600000C0E9FF01C0F3FF025016EC3DF0E4CFA8
:105970000DF0E4CF0CF0E4CF0BF0E4CF08F0E4CF6F
:1059800007F0E4CF06F0E4CF05F0E4CF04F0E4CF75
:1059900003F0E4CF02F0E4CF01F0E4CF00F0E4CF75
:1059A000D9FF1200D9CFE5FFE1CFD9FF00C0E5FF55
:1059B00001C0E5FF02C0E5FF03C0E5FF04C0E5FF4D
:1059C00005C0E5FF06C0E5FF07C0E5FF08C0E5FF2D
:1059D00009C0E5FF0AC0E5FF0BC0E5FF0CC0E5FF0D
:1059E0000DC0E5FF020EDBCF00F0030EDBCF01F0B0
:1059F000040EDBCF02F0050EDBCF03F0060EDBCF8B
:105A000004F0070EDBCF05F0080EDBCF06F0090E21
:105A1000DBCF07F0086A096A0A6A0B6A200E0C6E6F
:105A20000350800BE8440D6E00500026013602360C
:105A300003360850082609360A360B360D50D8A40E
:105A4000088007500B5C08E106500A5C05E1055030
:105A5000095C02E10450085C09E30450085E05504B
:105A6000095A06500A5A07500B5A00800C2ED8D7F4
:105A700003C0E9FF02C0F4FF01C0F3FF0050E4CF10
:105A80000DF0E4CF0CF0E4CF0BF0E4CF0AF0E4CF5C
:105A900009F0E4CF08F0E4CF07F0E4CF06F0E4CF5C
:105AA00005F0E4CF04F0E4CF03F0E4CF02F0E4CF5C
:105AB00001F0E4CF00F0E4CFD9FF120000C0E5FF11
:105AC00001C0E5FF02C0E5FF03C0E5FF72A276D08A
:105AD00059EC3BF0006E005005E10401636B0401DA
